{
  "contractName": "Dex",
  "abi": [
    {
      "anonymous": false,
      "inputs": [
        {
          "indexed": true,
          "internalType": "address",
          "name": "previousOwner",
          "type": "address"
        },
        {
          "indexed": true,
          "internalType": "address",
          "name": "newOwner",
          "type": "address"
        }
      ],
      "name": "OwnershipTransferred",
      "type": "event"
    },
    {
      "inputs": [
        {
          "internalType": "bytes32",
          "name": "ticker",
          "type": "bytes32"
        },
        {
          "internalType": "address",
          "name": "tokenAddress",
          "type": "address"
        }
      ],
      "name": "addToken",
      "outputs": [],
      "stateMutability": "nonpayable",
      "type": "function"
    },
    {
      "inputs": [
        {
          "internalType": "address",
          "name": "",
          "type": "address"
        },
        {
          "internalType": "bytes32",
          "name": "",
          "type": "bytes32"
        }
      ],
      "name": "balances",
      "outputs": [
        {
          "internalType": "uint256",
          "name": "",
          "type": "uint256"
        }
      ],
      "stateMutability": "view",
      "type": "function"
    },
    {
      "inputs": [
        {
          "internalType": "uint256",
          "name": "amount",
          "type": "uint256"
        },
        {
          "internalType": "bytes32",
          "name": "ticker",
          "type": "bytes32"
        }
      ],
      "name": "deposit",
      "outputs": [],
      "stateMutability": "nonpayable",
      "type": "function"
    },
    {
      "inputs": [
        {
          "internalType": "bytes32",
          "name": "",
          "type": "bytes32"
        },
        {
          "internalType": "uint256",
          "name": "",
          "type": "uint256"
        },
        {
          "internalType": "uint256",
          "name": "",
          "type": "uint256"
        }
      ],
      "name": "orderBook",
      "outputs": [
        {
          "internalType": "uint256",
          "name": "id",
          "type": "uint256"
        },
        {
          "internalType": "address",
          "name": "trader",
          "type": "address"
        },
        {
          "internalType": "bool",
          "name": "buyOrder",
          "type": "bool"
        },
        {
          "internalType": "bytes32",
          "name": "ticker",
          "type": "bytes32"
        },
        {
          "internalType": "uint256",
          "name": "amount",
          "type": "uint256"
        },
        {
          "internalType": "uint256",
          "name": "price",
          "type": "uint256"
        }
      ],
      "stateMutability": "view",
      "type": "function"
    },
    {
      "inputs": [],
      "name": "owner",
      "outputs": [
        {
          "internalType": "address",
          "name": "",
          "type": "address"
        }
      ],
      "stateMutability": "view",
      "type": "function"
    },
    {
      "inputs": [],
      "name": "renounceOwnership",
      "outputs": [],
      "stateMutability": "nonpayable",
      "type": "function"
    },
    {
      "inputs": [
        {
          "internalType": "uint256",
          "name": "",
          "type": "uint256"
        }
      ],
      "name": "tokenList",
      "outputs": [
        {
          "internalType": "bytes32",
          "name": "",
          "type": "bytes32"
        }
      ],
      "stateMutability": "view",
      "type": "function"
    },
    {
      "inputs": [
        {
          "internalType": "bytes32",
          "name": "",
          "type": "bytes32"
        }
      ],
      "name": "tokenMapping",
      "outputs": [
        {
          "internalType": "bytes32",
          "name": "ticker",
          "type": "bytes32"
        },
        {
          "internalType": "address",
          "name": "tokenAddress",
          "type": "address"
        }
      ],
      "stateMutability": "view",
      "type": "function"
    },
    {
      "inputs": [
        {
          "internalType": "address",
          "name": "newOwner",
          "type": "address"
        }
      ],
      "name": "transferOwnership",
      "outputs": [],
      "stateMutability": "nonpayable",
      "type": "function"
    },
    {
      "inputs": [
        {
          "internalType": "uint256",
          "name": "amount",
          "type": "uint256"
        },
        {
          "internalType": "bytes32",
          "name": "ticker",
          "type": "bytes32"
        }
      ],
      "name": "withdraw",
      "outputs": [],
      "stateMutability": "nonpayable",
      "type": "function"
    },
    {
      "inputs": [
        {
          "internalType": "bytes32",
          "name": "ticker",
          "type": "bytes32"
        },
        {
          "internalType": "enum Dex.Side",
          "name": "side",
          "type": "uint8"
        }
      ],
      "name": "getOrderBook",
      "outputs": [
        {
          "components": [
            {
              "internalType": "uint256",
              "name": "id",
              "type": "uint256"
            },
            {
              "internalType": "address",
              "name": "trader",
              "type": "address"
            },
            {
              "internalType": "bool",
              "name": "buyOrder",
              "type": "bool"
            },
            {
              "internalType": "bytes32",
              "name": "ticker",
              "type": "bytes32"
            },
            {
              "internalType": "uint256",
              "name": "amount",
              "type": "uint256"
            },
            {
              "internalType": "uint256",
              "name": "price",
              "type": "uint256"
            }
          ],
          "internalType": "struct Dex.Order[]",
          "name": "",
          "type": "tuple[]"
        }
      ],
      "stateMutability": "view",
      "type": "function"
    }
  ],
  "bytecode": "0x608060405234801561001057600080fd5b5060006100216100c460201b60201c565b9050806000806101000a81548173ffffffffffffffffffffffffffffffffffffffff021916908373ffffffffffffffffffffffffffffffffffffffff1602179055508073ffffffffffffffffffffffffffffffffffffffff16600073ffffffffffffffffffffffffffffffffffffffff167f8be0079c531659141344cd1fd0a4f28419497f9722a3daafe3b4186f6b6457e060405160405180910390a3506100cc565b600033905090565b611662806100db6000396000f3fe608060405234801561001057600080fd5b50600436106100a95760003560e01c80639776aacf116100715780639776aacf1461016c5780639ead722214610188578063a8d2021a146101b8578063ba58ea68146101d4578063c9630cb014610204578063f2fde38b14610220576100a9565b80630bb431b6146100ae5780631f14df69146100e3578063667cb4ba14610113578063715018a6146101445780638da5cb5b1461014e575b600080fd5b6100c860048036038101906100c39190610fab565b61023c565b6040516100da9695949392919061140a565b60405180910390f35b6100fd60048036038101906100f89190610ea5565b6102cf565b60405161010a91906113ef565b60405180910390f35b61012d60048036038101906101289190610f0a565b6102f4565b60405161013b929190611366565b60405180910390f35b61014c610338565b005b610156610472565b60405161016391906112ae565b60405180910390f35b61018660048036038101906101819190610f33565b61049b565b005b6101a2600480360381019061019d9190610ffa565b6105d6565b6040516101af919061134b565b60405180910390f35b6101d260048036038101906101cd9190611023565b6105fa565b005b6101ee60048036038101906101e99190610f6f565b61087e565b6040516101fb9190611329565b60405180910390f35b61021e60048036038101906102199190611023565b6109d3565b005b61023a60048036038101906102359190610e7c565b610c36565b005b6004602052826000526040600020602052816000526040600020818154811061026457600080fd5b906000526020600020906005020160009250925050508060000154908060010160009054906101000a900473ffffffffffffffffffffffffffffffffffffffff16908060010160149054906101000a900460ff16908060020154908060030154908060040154905086565b6003602052816000526040600020602052806000526040600020600091509150505481565b60016020528060005260406000206000915090508060000154908060010160009054906101000a900473ffffffffffffffffffffffffffffffffffffffff16905082565b610340610ddf565b73ffffffffffffffffffffffffffffffffffffffff1661035e610472565b73ffffffffffffffffffffffffffffffffffffffff16146103b4576040517f08c379a00000000000000000000000000000000000000000000000000000000081526004016103ab906113af565b60405180910390fd5b600073ffffffffffffffffffffffffffffffffffffffff1660008054906101000a900473ffffffffffffffffffffffffffffffffffffffff1673ffffffffffffffffffffffffffffffffffffffff167f8be0079c531659141344cd1fd0a4f28419497f9722a3daafe3b4186f6b6457e060405160405180910390a360008060006101000a81548173ffffffffffffffffffffffffffffffffffffffff021916908373ffffffffffffffffffffffffffffffffffffffff160217905550565b60008060009054906101000a900473ffffffffffffffffffffffffffffffffffffffff16905090565b6104a3610ddf565b73ffffffffffffffffffffffffffffffffffffffff166104c1610472565b73ffffffffffffffffffffffffffffffffffffffff1614610517576040517f08c379a000000000000000000000000000000000000000000000000000000000815260040161050e906113af565b60405180910390fd5b60405180604001604052808381526020018273ffffffffffffffffffffffffffffffffffffffff16815250600160008481526020019081526020016000206000820151816000015560208201518160010160006101000a81548173ffffffffffffffffffffffffffffffffffffffff021916908373ffffffffffffffffffffffffffffffffffffffff16021790555090505060028290806001815401808255809150506001900390600052602060002001600090919091909150555050565b600281815481106105e657600080fd5b906000526020600020016000915090505481565b80600073ffffffffffffffffffffffffffffffffffffffff166001600083815260200190815260200160002060010160009054906101000a900473ffffffffffffffffffffffffffffffffffffffff1673ffffffffffffffffffffffffffffffffffffffff16141561066b57600080fd5b82600360003373ffffffffffffffffffffffffffffffffffffffff1673ffffffffffffffffffffffffffffffffffffffff16815260200190815260200160002060008481526020019081526020016000205410156106fe576040517f08c379a00000000000000000000000000000000000000000000000000000000081526004016106f5906113cf565b60405180910390fd5b61076183600360003373ffffffffffffffffffffffffffffffffffffffff1673ffffffffffffffffffffffffffffffffffffffff168152602001908152602001600020600085815260200190815260200160002054610de790919063ffffffff16565b600360003373ffffffffffffffffffffffffffffffffffffffff1673ffffffffffffffffffffffffffffffffffffffff1681526020019081526020016000206000848152602001908152602001600020819055506001600083815260200190815260200160002060010160009054906101000a900473ffffffffffffffffffffffffffffffffffffffff1673ffffffffffffffffffffffffffffffffffffffff1663a9059cbb33856040518363ffffffff1660e01b8152600401610826929190611300565b602060405180830381600087803b15801561084057600080fd5b505af1158015610854573d6000803e3d6000fd5b505050506040513d601f19601f820116820180604052508101906108789190610ee1565b50505050565b60606004600084815260200190815260200160002060008360018111156108ce577f4e487b7100000000000000000000000000000000000000000000000000000000600052602160045260246000fd5b8152602001908152602001600020805480602002602001604051908101604052809291908181526020016000905b828210156109c757838290600052602060002090600502016040518060c0016040529081600082015481526020016001820160009054906101000a900473ffffffffffffffffffffffffffffffffffffffff1673ffffffffffffffffffffffffffffffffffffffff1673ffffffffffffffffffffffffffffffffffffffff1681526020016001820160149054906101000a900460ff161515151581526020016002820154815260200160038201548152602001600482015481525050815260200190600101906108fc565b50505050905092915050565b80600073ffffffffffffffffffffffffffffffffffffffff166001600083815260200190815260200160002060010160009054906101000a900473ffffffffffffffffffffffffffffffffffffffff1673ffffffffffffffffffffffffffffffffffffffff161415610a4457600080fd5b600073ffffffffffffffffffffffffffffffffffffffff166001600084815260200190815260200160002060010160009054906101000a900473ffffffffffffffffffffffffffffffffffffffff1673ffffffffffffffffffffffffffffffffffffffff161415610ab457600080fd5b6001600083815260200190815260200160002060010160009054906101000a900473ffffffffffffffffffffffffffffffffffffffff1673ffffffffffffffffffffffffffffffffffffffff166323b872dd3330866040518463ffffffff1660e01b8152600401610b27939291906112c9565b602060405180830381600087803b158015610b4157600080fd5b505af1158015610b55573d6000803e3d6000fd5b505050506040513d601f19601f82011682018060405250810190610b799190610ee1565b50610bdd83600360003373ffffffffffffffffffffffffffffffffffffffff1673ffffffffffffffffffffffffffffffffffffffff168152602001908152602001600020600085815260200190815260200160002054610dfd90919063ffffffff16565b600360003373ffffffffffffffffffffffffffffffffffffffff1673ffffffffffffffffffffffffffffffffffffffff168152602001908152602001600020600084815260200190815260200160002081905550505050565b610c3e610ddf565b73ffffffffffffffffffffffffffffffffffffffff16610c5c610472565b73ffffffffffffffffffffffffffffffffffffffff1614610cb2576040517f08c379a0000000000000000000000000000000000000000000000000000000008152600401610ca9906113af565b60405180910390fd5b600073ffffffffffffffffffffffffffffffffffffffff168173ffffffffffffffffffffffffffffffffffffffff161415610d22576040517f08c379a0000000000000000000000000000000000000000000000000000000008152600401610d199061138f565b60405180910390fd5b8073ffffffffffffffffffffffffffffffffffffffff1660008054906101000a900473ffffffffffffffffffffffffffffffffffffffff1673ffffffffffffffffffffffffffffffffffffffff167f8be0079c531659141344cd1fd0a4f28419497f9722a3daafe3b4186f6b6457e060405160405180910390a3806000806101000a81548173ffffffffffffffffffffffffffffffffffffffff021916908373ffffffffffffffffffffffffffffffffffffffff16021790555050565b600033905090565b60008183610df5919061150b565b905092915050565b60008183610e0b91906114b5565b905092915050565b600081359050610e22816115c0565b92915050565b600081519050610e37816115d7565b92915050565b600081359050610e4c816115ee565b92915050565b600081359050610e6181611605565b92915050565b600081359050610e7681611615565b92915050565b600060208284031215610e8e57600080fd5b6000610e9c84828501610e13565b91505092915050565b60008060408385031215610eb857600080fd5b6000610ec685828601610e13565b9250506020610ed785828601610e3d565b9150509250929050565b600060208284031215610ef357600080fd5b6000610f0184828501610e28565b91505092915050565b600060208284031215610f1c57600080fd5b6000610f2a84828501610e3d565b91505092915050565b60008060408385031215610f4657600080fd5b6000610f5485828601610e3d565b9250506020610f6585828601610e13565b9150509250929050565b60008060408385031215610f8257600080fd5b6000610f9085828601610e3d565b9250506020610fa185828601610e52565b9150509250929050565b600080600060608486031215610fc057600080fd5b6000610fce86828701610e3d565b9350506020610fdf86828701610e67565b9250506040610ff086828701610e67565b9150509250925092565b60006020828403121561100c57600080fd5b600061101a84828501610e67565b91505092915050565b6000806040838503121561103657600080fd5b600061104485828601610e67565b925050602061105585828601610e3d565b9150509250929050565b600061106b8383611215565b60c08301905092915050565b6110808161153f565b82525050565b61108f8161153f565b82525050565b60006110a08261147b565b6110aa8185611493565b93506110b58361146b565b8060005b838110156110e65781516110cd888261105f565b97506110d883611486565b9250506001810190506110b9565b5085935050505092915050565b6110fc81611551565b82525050565b61110b81611551565b82525050565b61111a8161155d565b82525050565b6111298161155d565b82525050565b600061113c6026836114a4565b91507f4f776e61626c653a206e6577206f776e657220697320746865207a65726f206160008301527f64647265737300000000000000000000000000000000000000000000000000006020830152604082019050919050565b60006111a26020836114a4565b91507f4f776e61626c653a2063616c6c6572206973206e6f7420746865206f776e65726000830152602082019050919050565b60006111e26016836114a4565b91507f42616c616e6365206e6f742073756666696369656e74000000000000000000006000830152602082019050919050565b60c08201600082015161122b6000850182611290565b50602082015161123e6020850182611077565b50604082015161125160408501826110f3565b5060608201516112646060850182611111565b5060808201516112776080850182611290565b5060a082015161128a60a0850182611290565b50505050565b61129981611587565b82525050565b6112a881611587565b82525050565b60006020820190506112c36000830184611086565b92915050565b60006060820190506112de6000830186611086565b6112eb6020830185611086565b6112f8604083018461129f565b949350505050565b60006040820190506113156000830185611086565b611322602083018461129f565b9392505050565b600060208201905081810360008301526113438184611095565b905092915050565b60006020820190506113606000830184611120565b92915050565b600060408201905061137b6000830185611120565b6113886020830184611086565b9392505050565b600060208201905081810360008301526113a88161112f565b9050919050565b600060208201905081810360008301526113c881611195565b9050919050565b600060208201905081810360008301526113e8816111d5565b9050919050565b6000602082019050611404600083018461129f565b92915050565b600060c08201905061141f600083018961129f565b61142c6020830188611086565b6114396040830187611102565b6114466060830186611120565b611453608083018561129f565b61146060a083018461129f565b979650505050505050565b6000819050602082019050919050565b600081519050919050565b6000602082019050919050565b600082825260208201905092915050565b600082825260208201905092915050565b60006114c082611587565b91506114cb83611587565b9250827fffffffffffffffffffffffffffffffffffffffffffffffffffffffffffffffff03821115611500576114ff611591565b5b828201905092915050565b600061151682611587565b915061152183611587565b92508282101561153457611533611591565b5b828203905092915050565b600061154a82611567565b9050919050565b60008115159050919050565b6000819050919050565b600073ffffffffffffffffffffffffffffffffffffffff82169050919050565b6000819050919050565b7f4e487b7100000000000000000000000000000000000000000000000000000000600052601160045260246000fd5b6115c98161153f565b81146115d457600080fd5b50565b6115e081611551565b81146115eb57600080fd5b50565b6115f78161155d565b811461160257600080fd5b50565b6002811061161257600080fd5b50565b61161e81611587565b811461162957600080fd5b5056fea26469706673582212209dc962fe3a09511b48e88a2ecdc86b77099f9eaf9c54e22029a4a4f74407c06764736f6c63430008000033",
  "immutableReferences": {},
  "source": "// SPDX-License-Identifier: MIT\r\npragma solidity ^0.8.0;\r\npragma experimental ABIEncoderV2;\r\nimport \"../contracts/Wallet.sol\";\r\n\r\ncontract Dex is Wallet {\r\n\r\n    enum Side {\r\n        BUY,\r\n        SELL \r\n    }\r\n\r\n    struct Order {\r\n        uint id;\r\n        address trader;\r\n        bool buyOrder;\r\n        bytes32 ticker;\r\n        uint amount;\r\n        uint price;\r\n    }\r\n\r\n    mapping(bytes32 => mapping(uint => Order[])) public orderBook;\r\n    function getOrderBook(bytes32 ticker, Side side) view public returns(Order[] memory ){\r\n        return orderBook[ticker][uint(side)];\r\n\r\n    }\r\n}",
  "sourcePath": "E:/Importante/Programas creados imagenes iso etc/Programas blockchain/proyectos/DEX/contracts/Dex.sol",
  "compiler": {
    "name": "solc",
    "version": "0.8.0+commit.c7dfd78e.Emscripten.clang"
  },
  "schemaVersion": "3.3.4",
  "updatedAt": "2021-04-06T23:02:23.332Z",
  "devdoc": {
    "kind": "dev",
    "methods": {
      "owner()": {
        "details": "Returns the address of the current owner."
      },
      "renounceOwnership()": {
        "details": "Leaves the contract without owner. It will not be possible to call `onlyOwner` functions anymore. Can only be called by the current owner. NOTE: Renouncing ownership will leave the contract without an owner, thereby removing any functionality that is only available to the owner."
      },
      "transferOwnership(address)": {
        "details": "Transfers ownership of the contract to a new account (`newOwner`). Can only be called by the current owner."
      }
    },
    "version": 1
  },
  "userdoc": {
    "kind": "user",
    "methods": {},
    "version": 1
  }
}