{
  "contractName": "Dex",
  "abi": [
    {
      "anonymous": false,
      "inputs": [
        {
          "indexed": true,
          "internalType": "address",
          "name": "previousOwner",
          "type": "address"
        },
        {
          "indexed": true,
          "internalType": "address",
          "name": "newOwner",
          "type": "address"
        }
      ],
      "name": "OwnershipTransferred",
      "type": "event"
    },
    {
      "inputs": [
        {
          "internalType": "bytes32",
          "name": "ticker",
          "type": "bytes32"
        },
        {
          "internalType": "address",
          "name": "tokenAddress",
          "type": "address"
        }
      ],
      "name": "addToken",
      "outputs": [],
      "stateMutability": "nonpayable",
      "type": "function"
    },
    {
      "inputs": [
        {
          "internalType": "address",
          "name": "",
          "type": "address"
        },
        {
          "internalType": "bytes32",
          "name": "",
          "type": "bytes32"
        }
      ],
      "name": "balances",
      "outputs": [
        {
          "internalType": "uint256",
          "name": "",
          "type": "uint256"
        }
      ],
      "stateMutability": "view",
      "type": "function",
      "constant": true
    },
    {
      "inputs": [
        {
          "internalType": "uint256",
          "name": "amount",
          "type": "uint256"
        },
        {
          "internalType": "bytes32",
          "name": "ticker",
          "type": "bytes32"
        }
      ],
      "name": "deposit",
      "outputs": [],
      "stateMutability": "nonpayable",
      "type": "function"
    },
    {
      "inputs": [],
      "name": "nextOrderId",
      "outputs": [
        {
          "internalType": "uint256",
          "name": "",
          "type": "uint256"
        }
      ],
      "stateMutability": "view",
      "type": "function",
      "constant": true
    },
    {
      "inputs": [
        {
          "internalType": "bytes32",
          "name": "",
          "type": "bytes32"
        },
        {
          "internalType": "uint256",
          "name": "",
          "type": "uint256"
        },
        {
          "internalType": "uint256",
          "name": "",
          "type": "uint256"
        }
      ],
      "name": "orderBook",
      "outputs": [
        {
          "internalType": "uint256",
          "name": "id",
          "type": "uint256"
        },
        {
          "internalType": "address",
          "name": "trader",
          "type": "address"
        },
        {
          "internalType": "enum Dex.Side",
          "name": "side",
          "type": "uint8"
        },
        {
          "internalType": "bytes32",
          "name": "ticker",
          "type": "bytes32"
        },
        {
          "internalType": "uint256",
          "name": "amount",
          "type": "uint256"
        },
        {
          "internalType": "uint256",
          "name": "price",
          "type": "uint256"
        }
      ],
      "stateMutability": "view",
      "type": "function",
      "constant": true
    },
    {
      "inputs": [],
      "name": "owner",
      "outputs": [
        {
          "internalType": "address",
          "name": "",
          "type": "address"
        }
      ],
      "stateMutability": "view",
      "type": "function",
      "constant": true
    },
    {
      "inputs": [],
      "name": "renounceOwnership",
      "outputs": [],
      "stateMutability": "nonpayable",
      "type": "function"
    },
    {
      "inputs": [
        {
          "internalType": "uint256",
          "name": "",
          "type": "uint256"
        }
      ],
      "name": "tokenList",
      "outputs": [
        {
          "internalType": "bytes32",
          "name": "",
          "type": "bytes32"
        }
      ],
      "stateMutability": "view",
      "type": "function",
      "constant": true
    },
    {
      "inputs": [
        {
          "internalType": "bytes32",
          "name": "",
          "type": "bytes32"
        }
      ],
      "name": "tokenMapping",
      "outputs": [
        {
          "internalType": "bytes32",
          "name": "ticker",
          "type": "bytes32"
        },
        {
          "internalType": "address",
          "name": "tokenAddress",
          "type": "address"
        }
      ],
      "stateMutability": "view",
      "type": "function",
      "constant": true
    },
    {
      "inputs": [
        {
          "internalType": "address",
          "name": "newOwner",
          "type": "address"
        }
      ],
      "name": "transferOwnership",
      "outputs": [],
      "stateMutability": "nonpayable",
      "type": "function"
    },
    {
      "inputs": [
        {
          "internalType": "uint256",
          "name": "amount",
          "type": "uint256"
        },
        {
          "internalType": "bytes32",
          "name": "ticker",
          "type": "bytes32"
        }
      ],
      "name": "withdraw",
      "outputs": [],
      "stateMutability": "nonpayable",
      "type": "function"
    },
    {
      "inputs": [
        {
          "internalType": "bytes32",
          "name": "ticker",
          "type": "bytes32"
        },
        {
          "internalType": "enum Dex.Side",
          "name": "side",
          "type": "uint8"
        }
      ],
      "name": "getOrderBook",
      "outputs": [
        {
          "components": [
            {
              "internalType": "uint256",
              "name": "id",
              "type": "uint256"
            },
            {
              "internalType": "address",
              "name": "trader",
              "type": "address"
            },
            {
              "internalType": "enum Dex.Side",
              "name": "side",
              "type": "uint8"
            },
            {
              "internalType": "bytes32",
              "name": "ticker",
              "type": "bytes32"
            },
            {
              "internalType": "uint256",
              "name": "amount",
              "type": "uint256"
            },
            {
              "internalType": "uint256",
              "name": "price",
              "type": "uint256"
            }
          ],
          "internalType": "struct Dex.Order[]",
          "name": "",
          "type": "tuple[]"
        }
      ],
      "stateMutability": "view",
      "type": "function",
      "constant": true
    },
    {
      "inputs": [],
      "name": "depositEth",
      "outputs": [],
      "stateMutability": "payable",
      "type": "function",
      "payable": true
    },
    {
      "inputs": [
        {
          "internalType": "enum Dex.Side",
          "name": "side",
          "type": "uint8"
        },
        {
          "internalType": "bytes32",
          "name": "ticker",
          "type": "bytes32"
        },
        {
          "internalType": "uint256",
          "name": "amount",
          "type": "uint256"
        },
        {
          "internalType": "uint256",
          "name": "price",
          "type": "uint256"
        }
      ],
      "name": "createLimitOrder",
      "outputs": [],
      "stateMutability": "nonpayable",
      "type": "function"
    }
  ],
  "bytecode": "0x608060405234801561001057600080fd5b5060006100216100c460201b60201c565b9050806000806101000a81548173ffffffffffffffffffffffffffffffffffffffff021916908373ffffffffffffffffffffffffffffffffffffffff1602179055508073ffffffffffffffffffffffffffffffffffffffff16600073ffffffffffffffffffffffffffffffffffffffff167f8be0079c531659141344cd1fd0a4f28419497f9722a3daafe3b4186f6b6457e060405160405180910390a3506100cc565b600033905090565b612942806100db6000396000f3fe6080604052600436106100dd5760003560e01c80638da5cb5b1161007f578063a8d2021a11610059578063a8d2021a146102a5578063ba58ea68146102ce578063c9630cb01461030b578063f2fde38b14610334576100dd565b80638da5cb5b146102145780639776aacf1461023f5780639ead722214610268576100dd565b8063439370b1116100bb578063439370b11461018c578063667cb4ba146101965780636f3b62f9146101d4578063715018a6146101fd576100dd565b80630bb431b6146100e25780631f14df69146101245780632a58b33014610161575b600080fd5b3480156100ee57600080fd5b50610109600480360381019061010491906120f3565b61035d565b60405161011b969594939291906125b5565b60405180910390f35b34801561013057600080fd5b5061014b60048036038101906101469190611fed565b6103f0565b604051610158919061259a565b60405180910390f35b34801561016d57600080fd5b50610176610415565b604051610183919061259a565b60405180910390f35b61019461041b565b005b3480156101a257600080fd5b506101bd60048036038101906101b89190612052565b610514565b6040516101cb929190612511565b60405180910390f35b3480156101e057600080fd5b506101fb60048036038101906101f69190612142565b610558565b005b34801561020957600080fd5b506102126113fe565b005b34801561022057600080fd5b50610229611538565b6040516102369190612459565b60405180910390f35b34801561024b57600080fd5b506102666004803603810190610261919061207b565b611561565b005b34801561027457600080fd5b5061028f600480360381019061028a91906121a5565b61169c565b60405161029c91906124f6565b60405180910390f35b3480156102b157600080fd5b506102cc60048036038101906102c791906121ce565b6116c0565b005b3480156102da57600080fd5b506102f560048036038101906102f091906120b7565b611944565b60405161030291906124d4565b60405180910390f35b34801561031757600080fd5b50610332600480360381019061032d91906121ce565b611b05565b005b34801561034057600080fd5b5061035b60048036038101906103569190611fc4565b611d68565b005b6005602052826000526040600020602052816000526040600020818154811061038557600080fd5b906000526020600020906005020160009250925050508060000154908060010160009054906101000a900473ffffffffffffffffffffffffffffffffffffffff16908060010160149054906101000a900460ff16908060020154908060030154908060040154905086565b6003602052816000526040600020602052806000526040600020600091509150505481565b60045481565b61049e34600360003373ffffffffffffffffffffffffffffffffffffffff1673ffffffffffffffffffffffffffffffffffffffff16815260200190815260200160002060007f4554480000000000000000000000000000000000000000000000000000000000815260200190815260200160002054611f1190919063ffffffff16565b600360003373ffffffffffffffffffffffffffffffffffffffff1673ffffffffffffffffffffffffffffffffffffffff16815260200190815260200160002060007f4554480000000000000000000000000000000000000000000000000000000000815260200190815260200160002081905550565b60016020528060005260406000206000915090508060000154908060010160009054906101000a900473ffffffffffffffffffffffffffffffffffffffff16905082565b60006001811115610592577f4e487b7100000000000000000000000000000000000000000000000000000000600052602160045260246000fd5b8460018111156105cb577f4e487b7100000000000000000000000000000000000000000000000000000000600052602160045260246000fd5b1415610665576105e48183611f2790919063ffffffff16565b600360003373ffffffffffffffffffffffffffffffffffffffff1673ffffffffffffffffffffffffffffffffffffffff16815260200190815260200160002060007f4554480000000000000000000000000000000000000000000000000000000000815260200190815260200160002054101561066057600080fd5b61074e565b60018081111561069e577f4e487b7100000000000000000000000000000000000000000000000000000000600052602160045260246000fd5b8460018111156106d7577f4e487b7100000000000000000000000000000000000000000000000000000000600052602160045260246000fd5b141561074d576106f08183611f2790919063ffffffff16565b600360003373ffffffffffffffffffffffffffffffffffffffff1673ffffffffffffffffffffffffffffffffffffffff168152602001908152602001600020600085815260200190815260200160002054101561074c57600080fd5b5b5b600060056000858152602001908152602001600020600086600181111561079e577f4e487b7100000000000000000000000000000000000000000000000000000000600052602160045260246000fd5b81526020019081526020016000209050806040518060c0016040528060045481526020013373ffffffffffffffffffffffffffffffffffffffff168152602001876001811115610817577f4e487b7100000000000000000000000000000000000000000000000000000000600052602160045260246000fd5b81526020018681526020018581526020018481525090806001815401808255809150506001900390600052602060002090600502016000909190919091506000820151816000015560208201518160010160006101000a81548173ffffffffffffffffffffffffffffffffffffffff021916908373ffffffffffffffffffffffffffffffffffffffff16021790555060408201518160010160146101000a81548160ff021916908360018111156108f7577f4e487b7100000000000000000000000000000000000000000000000000000000600052602160045260246000fd5b0217905550606082015181600201556080820151816003015560a082015181600401555050600080828054905011610930576000610942565b600182805490506109419190612710565b5b90506000600181111561097e577f4e487b7100000000000000000000000000000000000000000000000000000000600052602160045260246000fd5b8660018111156109b7577f4e487b7100000000000000000000000000000000000000000000000000000000600052602160045260246000fd5b1415610e93575b6000811115610e8e57818181548110610a00577f4e487b7100000000000000000000000000000000000000000000000000000000600052603260045260246000fd5b90600052602060002090600502016004015482600183610a209190612710565b81548110610a57577f4e487b7100000000000000000000000000000000000000000000000000000000600052603260045260246000fd5b9060005260206000209060050201600401541115610a7457610e8e565b600082600183610a849190612710565b81548110610abb577f4e487b7100000000000000000000000000000000000000000000000000000000600052603260045260246000fd5b90600052602060002090600502016040518060c0016040529081600082015481526020016001820160009054906101000a900473ffffffffffffffffffffffffffffffffffffffff1673ffffffffffffffffffffffffffffffffffffffff1673ffffffffffffffffffffffffffffffffffffffff1681526020016001820160149054906101000a900460ff166001811115610b7f577f4e487b7100000000000000000000000000000000000000000000000000000000600052602160045260246000fd5b6001811115610bb7577f4e487b7100000000000000000000000000000000000000000000000000000000600052602160045260246000fd5b815260200160028201548152602001600382015481526020016004820154815250509050828281548110610c14577f4e487b7100000000000000000000000000000000000000000000000000000000600052603260045260246000fd5b906000526020600020906005020183600184610c309190612710565b81548110610c67577f4e487b7100000000000000000000000000000000000000000000000000000000600052603260045260246000fd5b9060005260206000209060050201600082015481600001556001820160009054906101000a900473ffffffffffffffffffffffffffffffffffffffff168160010160006101000a81548173ffffffffffffffffffffffffffffffffffffffff021916908373ffffffffffffffffffffffffffffffffffffffff1602179055506001820160149054906101000a900460ff168160010160146101000a81548160ff02191690836001811115610d44577f4e487b7100000000000000000000000000000000000000000000000000000000600052602160045260246000fd5b021790555060028201548160020155600382015481600301556004820154816004015590505080838381548110610da4577f4e487b7100000000000000000000000000000000000000000000000000000000600052603260045260246000fd5b90600052602060002090600502016000820151816000015560208201518160010160006101000a81548173ffffffffffffffffffffffffffffffffffffffff021916908373ffffffffffffffffffffffffffffffffffffffff16021790555060408201518160010160146101000a81548160ff02191690836001811115610e54577f4e487b7100000000000000000000000000000000000000000000000000000000600052602160045260246000fd5b0217905550606082015181600201556080820151816003015560a082015181600401559050508180610e85906127bb565b925050506109be565b6113de565b600180811115610ecc577f4e487b7100000000000000000000000000000000000000000000000000000000600052602160045260246000fd5b866001811115610f05577f4e487b7100000000000000000000000000000000000000000000000000000000600052602160045260246000fd5b14156113dd575b60008111156113dc57818181548110610f4e577f4e487b7100000000000000000000000000000000000000000000000000000000600052603260045260246000fd5b90600052602060002090600502016004015482600183610f6e9190612710565b81548110610fa5577f4e487b7100000000000000000000000000000000000000000000000000000000600052603260045260246000fd5b9060005260206000209060050201600401541015610fc2576113dc565b600082600183610fd29190612710565b81548110611009577f4e487b7100000000000000000000000000000000000000000000000000000000600052603260045260246000fd5b90600052602060002090600502016040518060c0016040529081600082015481526020016001820160009054906101000a900473ffffffffffffffffffffffffffffffffffffffff1673ffffffffffffffffffffffffffffffffffffffff1673ffffffffffffffffffffffffffffffffffffffff1681526020016001820160149054906101000a900460ff1660018111156110cd577f4e487b7100000000000000000000000000000000000000000000000000000000600052602160045260246000fd5b6001811115611105577f4e487b7100000000000000000000000000000000000000000000000000000000600052602160045260246000fd5b815260200160028201548152602001600382015481526020016004820154815250509050828281548110611162577f4e487b7100000000000000000000000000000000000000000000000000000000600052603260045260246000fd5b90600052602060002090600502018360018461117e9190612710565b815481106111b5577f4e487b7100000000000000000000000000000000000000000000000000000000600052603260045260246000fd5b9060005260206000209060050201600082015481600001556001820160009054906101000a900473ffffffffffffffffffffffffffffffffffffffff168160010160006101000a81548173ffffffffffffffffffffffffffffffffffffffff021916908373ffffffffffffffffffffffffffffffffffffffff1602179055506001820160149054906101000a900460ff168160010160146101000a81548160ff02191690836001811115611292577f4e487b7100000000000000000000000000000000000000000000000000000000600052602160045260246000fd5b0217905550600282015481600201556003820154816003015560048201548160040155905050808383815481106112f2577f4e487b7100000000000000000000000000000000000000000000000000000000600052603260045260246000fd5b90600052602060002090600502016000820151816000015560208201518160010160006101000a81548173ffffffffffffffffffffffffffffffffffffffff021916908373ffffffffffffffffffffffffffffffffffffffff16021790555060408201518160010160146101000a81548160ff021916908360018111156113a2577f4e487b7100000000000000000000000000000000000000000000000000000000600052602160045260246000fd5b0217905550606082015181600201556080820151816003015560a0820151816004015590505081806113d3906127bb565b92505050610f0c565b5b5b600460008154809291906113f1906127e5565b9190505550505050505050565b611406611f3d565b73ffffffffffffffffffffffffffffffffffffffff16611424611538565b73ffffffffffffffffffffffffffffffffffffffff161461147a576040517f08c379a00000000000000000000000000000000000000000000000000000000081526004016114719061255a565b60405180910390fd5b600073ffffffffffffffffffffffffffffffffffffffff1660008054906101000a900473ffffffffffffffffffffffffffffffffffffffff1673ffffffffffffffffffffffffffffffffffffffff167f8be0079c531659141344cd1fd0a4f28419497f9722a3daafe3b4186f6b6457e060405160405180910390a360008060006101000a81548173ffffffffffffffffffffffffffffffffffffffff021916908373ffffffffffffffffffffffffffffffffffffffff160217905550565b60008060009054906101000a900473ffffffffffffffffffffffffffffffffffffffff16905090565b611569611f3d565b73ffffffffffffffffffffffffffffffffffffffff16611587611538565b73ffffffffffffffffffffffffffffffffffffffff16146115dd576040517f08c379a00000000000000000000000000000000000000000000000000000000081526004016115d49061255a565b60405180910390fd5b60405180604001604052808381526020018273ffffffffffffffffffffffffffffffffffffffff16815250600160008481526020019081526020016000206000820151816000015560208201518160010160006101000a81548173ffffffffffffffffffffffffffffffffffffffff021916908373ffffffffffffffffffffffffffffffffffffffff16021790555090505060028290806001815401808255809150506001900390600052602060002001600090919091909150555050565b600281815481106116ac57600080fd5b906000526020600020016000915090505481565b80600073ffffffffffffffffffffffffffffffffffffffff166001600083815260200190815260200160002060010160009054906101000a900473ffffffffffffffffffffffffffffffffffffffff1673ffffffffffffffffffffffffffffffffffffffff16141561173157600080fd5b82600360003373ffffffffffffffffffffffffffffffffffffffff1673ffffffffffffffffffffffffffffffffffffffff16815260200190815260200160002060008481526020019081526020016000205410156117c4576040517f08c379a00000000000000000000000000000000000000000000000000000000081526004016117bb9061257a565b60405180910390fd5b61182783600360003373ffffffffffffffffffffffffffffffffffffffff1673ffffffffffffffffffffffffffffffffffffffff168152602001908152602001600020600085815260200190815260200160002054611f4590919063ffffffff16565b600360003373ffffffffffffffffffffffffffffffffffffffff1673ffffffffffffffffffffffffffffffffffffffff1681526020019081526020016000206000848152602001908152602001600020819055506001600083815260200190815260200160002060010160009054906101000a900473ffffffffffffffffffffffffffffffffffffffff1673ffffffffffffffffffffffffffffffffffffffff1663a9059cbb33856040518363ffffffff1660e01b81526004016118ec9291906124ab565b602060405180830381600087803b15801561190657600080fd5b505af115801561191a573d6000803e3d6000fd5b505050506040513d601f19601f8201168201806040525081019061193e9190612029565b50505050565b6060600560008481526020019081526020016000206000836001811115611994577f4e487b7100000000000000000000000000000000000000000000000000000000600052602160045260246000fd5b8152602001908152602001600020805480602002602001604051908101604052809291908181526020016000905b82821015611af957838290600052602060002090600502016040518060c0016040529081600082015481526020016001820160009054906101000a900473ffffffffffffffffffffffffffffffffffffffff1673ffffffffffffffffffffffffffffffffffffffff1673ffffffffffffffffffffffffffffffffffffffff1681526020016001820160149054906101000a900460ff166001811115611a90577f4e487b7100000000000000000000000000000000000000000000000000000000600052602160045260246000fd5b6001811115611ac8577f4e487b7100000000000000000000000000000000000000000000000000000000600052602160045260246000fd5b81526020016002820154815260200160038201548152602001600482015481525050815260200190600101906119c2565b50505050905092915050565b80600073ffffffffffffffffffffffffffffffffffffffff166001600083815260200190815260200160002060010160009054906101000a900473ffffffffffffffffffffffffffffffffffffffff1673ffffffffffffffffffffffffffffffffffffffff161415611b7657600080fd5b600073ffffffffffffffffffffffffffffffffffffffff166001600084815260200190815260200160002060010160009054906101000a900473ffffffffffffffffffffffffffffffffffffffff1673ffffffffffffffffffffffffffffffffffffffff161415611be657600080fd5b6001600083815260200190815260200160002060010160009054906101000a900473ffffffffffffffffffffffffffffffffffffffff1673ffffffffffffffffffffffffffffffffffffffff166323b872dd3330866040518463ffffffff1660e01b8152600401611c5993929190612474565b602060405180830381600087803b158015611c7357600080fd5b505af1158015611c87573d6000803e3d6000fd5b505050506040513d601f19601f82011682018060405250810190611cab9190612029565b50611d0f83600360003373ffffffffffffffffffffffffffffffffffffffff1673ffffffffffffffffffffffffffffffffffffffff168152602001908152602001600020600085815260200190815260200160002054611f1190919063ffffffff16565b600360003373ffffffffffffffffffffffffffffffffffffffff1673ffffffffffffffffffffffffffffffffffffffff168152602001908152602001600020600084815260200190815260200160002081905550505050565b611d70611f3d565b73ffffffffffffffffffffffffffffffffffffffff16611d8e611538565b73ffffffffffffffffffffffffffffffffffffffff1614611de4576040517f08c379a0000000000000000000000000000000000000000000000000000000008152600401611ddb9061255a565b60405180910390fd5b600073ffffffffffffffffffffffffffffffffffffffff168173ffffffffffffffffffffffffffffffffffffffff161415611e54576040517f08c379a0000000000000000000000000000000000000000000000000000000008152600401611e4b9061253a565b60405180910390fd5b8073ffffffffffffffffffffffffffffffffffffffff1660008054906101000a900473ffffffffffffffffffffffffffffffffffffffff1673ffffffffffffffffffffffffffffffffffffffff167f8be0079c531659141344cd1fd0a4f28419497f9722a3daafe3b4186f6b6457e060405160405180910390a3806000806101000a81548173ffffffffffffffffffffffffffffffffffffffff021916908373ffffffffffffffffffffffffffffffffffffffff16021790555050565b60008183611f1f9190612660565b905092915050565b60008183611f3591906126b6565b905092915050565b600033905090565b60008183611f539190612710565b905092915050565b600081359050611f6a816128a0565b92915050565b600081519050611f7f816128b7565b92915050565b600081359050611f94816128ce565b92915050565b600081359050611fa9816128e5565b92915050565b600081359050611fbe816128f5565b92915050565b600060208284031215611fd657600080fd5b6000611fe484828501611f5b565b91505092915050565b6000806040838503121561200057600080fd5b600061200e85828601611f5b565b925050602061201f85828601611f85565b9150509250929050565b60006020828403121561203b57600080fd5b600061204984828501611f70565b91505092915050565b60006020828403121561206457600080fd5b600061207284828501611f85565b91505092915050565b6000806040838503121561208e57600080fd5b600061209c85828601611f85565b92505060206120ad85828601611f5b565b9150509250929050565b600080604083850312156120ca57600080fd5b60006120d885828601611f85565b92505060206120e985828601611f9a565b9150509250929050565b60008060006060848603121561210857600080fd5b600061211686828701611f85565b935050602061212786828701611faf565b925050604061213886828701611faf565b9150509250925092565b6000806000806080858703121561215857600080fd5b600061216687828801611f9a565b945050602061217787828801611f85565b935050604061218887828801611faf565b925050606061219987828801611faf565b91505092959194509250565b6000602082840312156121b757600080fd5b60006121c584828501611faf565b91505092915050565b600080604083850312156121e157600080fd5b60006121ef85828601611faf565b925050602061220085828601611f85565b9150509250929050565b600061221683836123c0565b60c08301905092915050565b61222b81612744565b82525050565b61223a81612744565b82525050565b600061224b82612626565b612255818561263e565b935061226083612616565b8060005b83811015612291578151612278888261220a565b975061228383612631565b925050600181019050612264565b5085935050505092915050565b6122a781612762565b82525050565b6122b681612762565b82525050565b6122c5816127a9565b82525050565b6122d4816127a9565b82525050565b60006122e760268361264f565b91507f4f776e61626c653a206e6577206f776e657220697320746865207a65726f206160008301527f64647265737300000000000000000000000000000000000000000000000000006020830152604082019050919050565b600061234d60208361264f565b91507f4f776e61626c653a2063616c6c6572206973206e6f7420746865206f776e65726000830152602082019050919050565b600061238d60168361264f565b91507f42616c616e6365206e6f742073756666696369656e74000000000000000000006000830152602082019050919050565b60c0820160008201516123d6600085018261243b565b5060208201516123e96020850182612222565b5060408201516123fc60408501826122bc565b50606082015161240f606085018261229e565b506080820151612422608085018261243b565b5060a082015161243560a085018261243b565b50505050565b6124448161279f565b82525050565b6124538161279f565b82525050565b600060208201905061246e6000830184612231565b92915050565b60006060820190506124896000830186612231565b6124966020830185612231565b6124a3604083018461244a565b949350505050565b60006040820190506124c06000830185612231565b6124cd602083018461244a565b9392505050565b600060208201905081810360008301526124ee8184612240565b905092915050565b600060208201905061250b60008301846122ad565b92915050565b600060408201905061252660008301856122ad565b6125336020830184612231565b9392505050565b60006020820190508181036000830152612553816122da565b9050919050565b6000602082019050818103600083015261257381612340565b9050919050565b6000602082019050818103600083015261259381612380565b9050919050565b60006020820190506125af600083018461244a565b92915050565b600060c0820190506125ca600083018961244a565b6125d76020830188612231565b6125e460408301876122cb565b6125f160608301866122ad565b6125fe608083018561244a565b61260b60a083018461244a565b979650505050505050565b6000819050602082019050919050565b600081519050919050565b6000602082019050919050565b600082825260208201905092915050565b600082825260208201905092915050565b600061266b8261279f565b91506126768361279f565b9250827fffffffffffffffffffffffffffffffffffffffffffffffffffffffffffffffff038211156126ab576126aa61282e565b5b828201905092915050565b60006126c18261279f565b91506126cc8361279f565b9250817fffffffffffffffffffffffffffffffffffffffffffffffffffffffffffffffff04831182151516156127055761270461282e565b5b828202905092915050565b600061271b8261279f565b91506127268361279f565b9250828210156127395761273861282e565b5b828203905092915050565b600061274f8261277f565b9050919050565b60008115159050919050565b6000819050919050565b600081905061277a8261288c565b919050565b600073ffffffffffffffffffffffffffffffffffffffff82169050919050565b6000819050919050565b60006127b48261276c565b9050919050565b60006127c68261279f565b915060008214156127da576127d961282e565b5b600182039050919050565b60006127f08261279f565b91507fffffffffffffffffffffffffffffffffffffffffffffffffffffffffffffffff8214156128235761282261282e565b5b600182019050919050565b7f4e487b7100000000000000000000000000000000000000000000000000000000600052601160045260246000fd5b7f4e487b7100000000000000000000000000000000000000000000000000000000600052602160045260246000fd5b6002811061289d5761289c61285d565b5b50565b6128a981612744565b81146128b457600080fd5b50565b6128c081612756565b81146128cb57600080fd5b50565b6128d781612762565b81146128e257600080fd5b50565b600281106128f257600080fd5b50565b6128fe8161279f565b811461290957600080fd5b5056fea26469706673582212203452864d1b6ff75cb388d0b44044f7bd00d5950ecf29c25f907cba622c7b8a5664736f6c63430008000033",
  "immutableReferences": {},
  "source": "// SPDX-License-Identifier: MIT\r\npragma solidity ^0.8.0;\r\npragma experimental ABIEncoderV2;\r\nimport \"./Wallet.sol\";\r\n\r\ncontract Dex is Wallet {\r\n\r\n    using SafeMath for uint256;\r\n    enum Side {\r\n        BUY,\r\n        SELL \r\n    }\r\n\r\n    struct Order {\r\n        uint id;\r\n        address trader;\r\n        Side side;\r\n        bytes32 ticker;\r\n        uint amount;\r\n        uint price;\r\n    }\r\n\r\n    uint public nextOrderId; \r\n\r\n    mapping(bytes32 => mapping(uint => Order[])) public orderBook;\r\n    function getOrderBook(bytes32 ticker, Side side) view public returns(Order[] memory ){\r\n        return orderBook[ticker][uint(side)];\r\n    }\r\n\r\n    function depositEth() public  payable {\r\n        balances[msg.sender][\"ETH\"] = balances[msg.sender][\"ETH\"].add(msg.value);\r\n    }\r\n\r\n    function createLimitOrder(Side side, bytes32 ticker, uint amount, uint price)  public  {\r\n        if(side == Side.BUY) {\r\n            require(balances[msg.sender][\"ETH\"] >= amount.mul(price));\r\n        }\r\n        else if(side == Side.SELL) {\r\n            require(balances[msg.sender][ticker] >= amount.mul(price));\r\n        } \r\n        \r\n        Order[] storage orders = orderBook[ticker][uint(side)];\r\n        orders.push(\r\n            Order(nextOrderId, msg.sender, side, ticker, amount, price)\r\n        );\r\n        \r\n        \r\n        //Bubble sort \r\n        uint i = orders.length > 0 ? orders.length - 1 : 0;\r\n        \r\n            if (side == Side.BUY){\r\n                while (i > 0){\r\n                    if(orders[i-1].price > orders[i].price){\r\n                        break;\r\n                    }\r\n                    Order memory orderToMove = orders[i-1];\r\n                    orders[i-1] = orders[i]; \r\n                    orders[i] = orderToMove; \r\n                    i--;\r\n                }\r\n                \r\n            }\r\n            else if (side == Side.SELL){\r\n                while (i > 0){\r\n                    if(orders[i-1].price < orders[i].price){\r\n                        break;\r\n                    }\r\n                    Order memory orderToMove = orders[i-1];\r\n                    orders[i-1] = orders[i]; \r\n                    orders[i] = orderToMove; \r\n                    i--;\r\n                }\r\n               \r\n            } \r\n            nextOrderId++;\r\n    \r\n    }\r\n     \r\n}",
  "sourcePath": "E:/Importante/Programas creados imagenes iso etc/Programas blockchain/proyectos/DEX/contracts/Dex.sol",
  "compiler": {
    "name": "solc",
    "version": "0.8.0+commit.c7dfd78e.Emscripten.clang"
  },
  "schemaVersion": "3.3.4",
  "updatedAt": "2021-04-13T00:17:37.178Z",
  "networkType": "ethereum",
  "devdoc": {
    "kind": "dev",
    "methods": {
      "owner()": {
        "details": "Returns the address of the current owner."
      },
      "renounceOwnership()": {
        "details": "Leaves the contract without owner. It will not be possible to call `onlyOwner` functions anymore. Can only be called by the current owner. NOTE: Renouncing ownership will leave the contract without an owner, thereby removing any functionality that is only available to the owner."
      },
      "transferOwnership(address)": {
        "details": "Transfers ownership of the contract to a new account (`newOwner`). Can only be called by the current owner."
      }
    },
    "version": 1
  },
  "userdoc": {
    "kind": "user",
    "methods": {},
    "version": 1
  }
}